:020000001A2ABA
:080006000000000000000800EA
:10000E00163083120313FC006C30FD00FD0B0D281F
:08001E00FC0B0D280000080096
:10002600313083120313FD00FD0B1728000000007A
:020036000800C0
:1000380083160313AB1B232883120610252883126B
:10004800061483162B1B2B28831286102D28831247
:1000580086148316AB1A33288312061135288312A7
:10006800061583162B1A3B28831286113D28831206
:1000780086156E1841280715422807118715032091
:1000880087118316AB194B28831206104D2883124B
:10009800061483162B1953288312861055288312A9
:1000A80086148316AB185B28831206115D28831209
:1000B800061583162B186328831286116528831268
:1000C80086156E18692807156A28071187150320F1
:0E00D80087116E1C7128072072281320080063
:1000E60083120313F8010830FC00700DF80D740834
:1000F600F80203188028F8070310F00DFC0B782887
:020106000800EF
:0E0108008316031321088A00200882000800D5
:10011600831203136E1083162A08AB001C206E147C
:020126000800CF
:10012800A628803083160313A600B928C030A6007D
:10013800B9289430A600B928D430A600B928803050
:10014800A600B928831603132608013A031995282F
:100158002608023A03199A282608033A03199D2803
:100168002608043A0319A028A3282703F000260824
:10017800F0077008A6007008AB001C206E108316EC
:10018800A90129082807840000080319D428290888
:10019800280784000008AA008B208316A90AC5280E
:0601A80083126E14080032
:1001AE0083120313A0012730FD00FD0BDC28000095
:1001BE0000000819F2284F30FD00FD0BE428000066
:1001CE000000081DEC280130A0002730FD00FD0BBB
:0801DE00EE28000000000800FB
:1001E60083160313A80103302802031801292808DF
:1001F6002707840020308000A80AF6282808270749
:1002060084008001A80328082707A9000A30F40003
:100216002608F00073207808F0003030F0078316C7
:1002260029088400700880000A30F4002608F000CF
:10023600732070088316A6007008003A031D24294F
:080246002629A803062908007F
:10024E0083120313A2010830220203186029081931
:10025E0031292E291D30FD00FD0B33290000000031
:10026E0008194B292208073CF0007008F1000130F4
:10027E00F000710803194729F00D7010FF3E412957
:10028E00F0097008A1055E292208073CF0007008ED
:10029E00F1000130F000710803195929F00D7010AA
:1002AE00FF3E53297008A104081D5E295B29A20A8E
:0402BE002A290800E1
:1002C200831603130811831208114730FC001F30F4
:1002D200FD00FD0B6A29FC0B6A29000000000815CD
:1002E2001D30FD00FD0B7329000000008316081568
:0202F200080002
:1002F40083160313A701A8012608F2002608F300B9
:10030400720884000008203A031D8D292708280458
:10031400031D8D299A290130A7000030A800720816
:1003240084000008F0007308840070088000F30A59
:100334007208F100F20A710884000008003A031DF3
:0803440082292608F0000800E0
:10034C00831603139818AC290000A62926088312DB
:04035C0099000800FC
:1003600084208A110A128000840AA00A0319A10AB3
:08037000F003031DB029080091
:1003780083160313871107110712871207138713B0
:10038800831287110711061086100611861107209F
:1003980007200720061586158715032087110720D3
:1003A8008715032087110720871503208711072049
:1003B80086118715032087110720871503208711C9
:1003C80006110614871503208711072006108615C5
:1003D80087150320871186118715032087110720A9
:1003E8008715032087118615871503208711072095
:1003F800861187150320871106148614061586159D
:0C04080087150320871107206E140800E0
:100414008316031398169030831298008316871757
:10042400071383128C1E192A1A08F000132A0800D5
:10043400422383160313860183128601BC214D30A7
:100444008316990018150A220230FB008630FC003E
:100454009930FD00FD0B2C2AFC0B2C2AFB0B2C2ABB
:100464000C308316AB001C2001308316AB001C201B
:100474006121D7202008013A031DC52A272121081C
:10048400EB0027212108EA0027212108E900272180
:100494002108ED0027212108EC006A086B07F00011
:1004A400F1010318F10A6908F0070318F10A6D084D
:1004B4007007F20071080318013EF3000030730660
:1004C400031D662A72082106031DAD2A3230EF008F
:1004D40001308316A6000630A70083126F08831626
:1004E400A80094202330EF0002308316A6000230C7
:1004F400A70083126F088316A80094206908831646
:10050400A600A230A700F320831269088316A60070
:10051400A621A2308316A6007A217008A800013013
:10052400A6000B30A70094206B088316A600A23007
:10053400A700F32083126B088316A600A621A2301D
:100544008316A6007A217008A8000230A6000B309A
:10055400A7009420C42A0C308316AB001C20013061
:100564008316AB001C205930EF0001308316A6001F
:100574000130A70083126F088316A8009420831605
:10058400A601A621E02A4D30EF0001308316A60013
:100594000330A70083126F088316A80094203D300F
:1005A400EF0002308316A6000130A70083126F0803
:1005B4008316A80094208316A601A6211F30FB00F1
:1005C4007130FC001E30FD00FD0BE62AFC0BE62A10
:0A05D400FB0BE62A0000322AEE2A93
:10068400203084004E3083120313F000F4308316BC
:0A069400A0000230A100B021080010
:0205E8000034DD
:0205EA000034DB
:0205EC000034D9
:1005EE00483475346D346934643469347434793410
:0E05FE003A34203420342E3430342534003486
:10060C00543465346D3470343A34203420342E3400
:06061C00303443340034C9
:10062200663472346F346D34203474346834653413
:100632002034733465346E3473346F34723400345E
:100642004E346F34203472346534733470346F3402
:080652006E347334653400348A
:10065A0043346834653463346B342034733475340A
:10066A006D3420346534723472346F347234003429
:02067A0000344A
:02067C00003448
:02067E00003446
:02068000003444
:02068200003442
:02400E004A2F37
:00000001FF
